S023000052544F532D574946492D57494E43313530302D6765742D455854312E737265637D
S21440000058F04020795840007758400077584000D4
S214400010775840007758400077584000000000006E
S21440002000000000000000000000000099054000AD
S214400030775840000000000039064000A106400006
S214400040775840007758400077584000775840002F
S214400050775840007758400077584000775840001F
S214400060775840000000000091534000A5534000E0
S214400070B9534000775840007758400077584000C2
S214400080CD534000E1534000775840007758400039
S21440009077584000775840007758400077584000DF
S2144000A077584000775840007758400077584000CF
S2144000B077584000775840007758400077584000BF
S2144000C077584000775840007758400077584000AF
S2144000D000000000775840000000000077584000BD
S2144000E0775840007758400077584000775840008F
S2144000F0775840007758400077584000775840007F
S214400100775840007758400077584000775840006E
S214400110775840000000000000000000000000008B
S214400120775840007758400077584000775840004E
S214400130775840000000000077584000775840004D
S21440014010B5054C237833B9044B13B10448AFF3CC
S21440015000800123237010BDD0094020000000001D
S2144001606CE240000C4B43B10C480D4910B5AFF360
S21440017000800C48036823B910BD0A48036833B9A9
S2144001807047094B002BF7D0BDE810401847064B88
S214400190002BF5D0184700BF000000006CE240007E
S2144001A0D40940206CE2400000000000F0B583B067
S2144001B005460C46002301932A4B984213D02A4BFF
S2144001C0984218D0294B98421DD0294B9D4222D0A8
S2144001D0284B9D4227D0284B9D422ED0274B9D42F0
S2144001E035D003B0F0BD1F46254E21463846B047B1
S2144001F00028FAD1E9E71F46214E21463846B04747
S2144002000028FAD1E4E71F461D4E21463846B0473F
S2144002100028FAD1DFE71F46194E21463846B04738
S2144002200028FAD1DAE71E46164D01A93046A847FF
S2144002300028FAD1019B2370D3E71E46114D01A931
S2144002403046A8470028FAD1019B2370C9E71E46CE
S2144002500C4D01A93046A8470028FAD1019B2370CF
S214400260BFE700BF00080E40000A0E40001A0E40CE
S214400270001C0E40004002400080024000C0024089
S214400280515740005F58400070B50C462A4B984284
S21440029013D02A4B984219D0294B98421FD0294B4D
S2144002A0984225D0284B98422BD0284B984231D0A4
S2144002B0274B984237D0002070BD1E46254D21461C
S2144002C03046A8470028FAD1012070BD1E46214D71
S2144002D021463046A8470028FAD1012070BD1E4668
S2144002E01C4D21463046A8470028FAD1012070BD53
S2144002F01E46184D21463046A8470028FAD1012010
S21440030070BD1E46144D21463046A8470028FAD1F7
S214400310012070BD1E46104D21463046A847002895
S214400320FAD1012070BD1E460B4D21463046A847E7
S2144003300028FAD1012070BD00080E40000A0E4089
S214400340001A0E40001C0E40004002400080024052
S21440035000C002403F5740004958400070B586B044
S2144003600E20174EB047174D174B1D60174A184BB7
S2144003701A60184A184B1A604FF4E1330093C023B2
S21440038001934FF4006302930024039404940E20D8
S214400390B047124A69462846114B98472846114BA3
S2144003A098472846104B9847104E33682146986821
S2144003B00F4DA847336821465868A84706B070BD19
S2144003C099554000008002401CD0402089024000E1
S2144003D018D04020AD01400014D0402080D1F00815
S2144003E0E95740003D584000435840002400402014
S2144003F07D654000F0B40138002422462546264656
S21440040011E0A3F13007092F14D802EB820207EB64
S214400410420207E00135032D24DCFF2A24D842EAB5
S214400420042432464BB110F8013F2E2BF2D0E8D8C8
S214400430002BF2D00020F0BC7047022D03DCC5F143
S2144004400303DB009C4089B1230E43EA0463220287
S21440045002F47F021A43230A03F47F4313430B60DC
S2144004600120E8E70020E6E70020E4E70120E2E795
S21440047000F1080343604FF0FF328260C3600361BF
S21440048000230360704700230361704743684B6056
S2144004909A688A609A685160996008610368013377
S2144004A00360704730B40D68B5F1FF3F02D000F1ED
S2144004B0080202E0026904E01A4653681C68A54236
S2144004C0FAD253684B6099608A605160086103684D
S2144004D00133036030BC70470369426881689160AD
S2144004E08268416851605A68904205D00022026195
S2144004F0186801381860704782685A60F6E700004E
S2144005000D4B1B68B3F1FF3F0AD04FF0800372B625
S21440051083F31188BFF36F8FBFF34F8F62B6FEE74A
S2144005204FF0800372B683F31188BFF36F8FBFF32B
S2144005304F8F62B6FEE700BF0C00402006480068BA
S214400540006880F3088862B661B6BFF34F8FBFF38A
S2144005506F8F00DF00BF000008ED00E0DFF80C0002
S214400560016841F4700101607047000088ED00E0CA
S2144005704FF0807340F8043C40F8081C054B40F8A8
S2144005800C3C40F8202C6FF0020340F8243C4438E2
S214400590704700BF01054000064B19680868B0E880
S2144005A0F04F80F30988BFF36F8F4FF0000080F361
S2144005B011887047FCC14020704700BF4FF0800351
S2144005C072B683F31188BFF36F8FBFF34F8F62B657
S2144005D00B4A136801331360012B0FD1094B1B687C
S2144005E013F0FF0F0AD04FF0800372B683F31188E2
S2144005F0BFF36F8FBFF34F8F62B6FEE7704700BF03
S2144006000C00402004ED00E00A4B1B6853B94FF045
S214400610800372B683F31188BFF36F8FBFF34F8F9B
S21440062062B6FEE7013B034A13600BB983F31188B9
S214400630704700BF0C004020EFF30980BFF36F8F78
S214400640154B1A681EF0100F08BF20ED108A20E9DF
S214400650F04F10604DF8043D4FF0800072B680F3C6
S2144006601188BFF34F8FBFF36F8F62B601F04AF920
S2144006704FF0000080F3118808BC19680868B0E89D
S214400680F04F1EF0100F08BFB0EC108A80F30988B8
S214400690BFF36F8F704700BFFCC14020704700BF5C
S2144006A008B5EFF311834FF0800272B682F31188DB
S2144006B0BFF36F8FBFF34F8F62B6054B984718B1A5
S2144006C04FF08052034B1A60002383F3118808BD15
S2144006D07115400004ED00E0034A044B1A600722FF
S2144006E0043B1A60704700BFBF27090014E000E0D3
S2144006F000B583B0254B1A78D2B20192FF221A7009
S2144007001B78DBB28DF803309DF8033003F080038E
S2144007101F4A137007221F4B1A609DF8033013F0D0
S214400720800F10D0062200E00A469DF803305B009A
S214400730DBB28DF803309DF80330511E13F0800F66
S214400740F2D1144B1A60134A13681B0203F4E06399
S2144007501360019BDBB20D4A13700F4B1A6842F4CC
S21440076060021A601A6842F060421A600B4B984763
S21440077000220B4B1A600B4B98470B4A136843F00A
S21440078040431360094B9847094B984700E400E004
S214400790EC094020F009402020ED00E0D90640005A
S2144007A00C0040205D05400034EF00E03D05400071
S2144007B001054000EFF305830F2B11D9124A9B5CCD
S2144007C0DBB2124A12789A420AD94FF0800372B6C8
S2144007D083F31188BFF36F8FBFF34F8F62B6FEE788
S2144007E00B4B1B6803F4E0630A4A126893420AD92B
S2144007F04FF0800372B683F31188BFF36F8FBFF359
S2144008004F8F62B6FEE77047F0E300E0EC09402009
S2144008100CED00E0F009402038B5044610F0070F14
S21440082002D020F007040834114B9847114B1B6840
S21440083093B1114B1B681C44A34213D24BF2F77280
S21440084094420FD80B4A15681D440B4B1C600B4B4B
S21440085098474DB1284638BD094B23F00703054A53
S2144008601360E6E7054B9847064B98470025F1E7A7
S21440087055154000F4094020F8C14020BD16400000
S214400880000A4020375E400050B14FF0800372B6F9
S21440089083F31188BFF36F8FBFF34F8F62B6FEE7C7
S2144008A07047000038B504461546026C5AB90368CE
S2144008B0002B2ED140681B4B984700236360A36BE8
S2144008C00133A36338BD6DB98068174B9847A3685A
S2144008D0226C1344A360626893421CD32368A360CF
S2144008E00020ECE7C068104B9847236C5B42E268F8
S2144008F01A44E26021688A4202D262681344E36086
S214400900022D0AD1A36B53B1A36B013BA363002016
S214400910D5E70020D3E70020D1E70020CFE700202E
S214400920CDE700BF051D4000AD63400030B583B045
S2144009300190446D74B1A26BE36B9A4215D34FF0AD
S214400940800372B683F31188BFF36F8FBFF34F8F68
S21440095062B6FEE74FF0800372B683F31188BFF3AA
S2144009606F8FBFF34F8F62B6FEE7A26B934203D8FA
S2144009700025284603B030BD0A4601A920460B4B49
S21440098098470546A36CB3F1FF3F0AD1636A002B34
S214400990EFD004F12400064B9847002818BF0125E5
S2144009A0E7E7A36C0133A364E3E700BFA508400074
S2144009B0D91A4000026C72B110B50346C46814449C
S2144009C0C4604068844201D31868D8600846D96835
S2144009D0014B984710BD7047AD634000F8B50446DC
S2144009E0224B9847A36C002B1BDD214D214F224EF6
S2144009F00BE0636AABB104F12400B04778B9A36C4E
S214400A00013BA364A36C002B0BDD636D002BF0D081
S214400A1000212046A8470128F1D1B847EFE7B8475C
S214400A20EDE74FF0FF33A364144B98470F4B9847BE
S214400A30636C002B14DD236993B104F110060E4D50
S214400A400C4F07E0636C013B6364636C002B07DD6F
S214400A5023692BB13046A8470028F3D0B847F1E7C2
S214400A604FF0FF336364054B9847F8BDBD05400023
S214400A702D094000351C4000D91A400009064000A8
S214400A8038B508B304460D461D4B98472268216C7E
S214400A90E36B03FB01F3D01860600020A063A26004
S214400AA05B1A1344E3604FF0FF336364A364FDB9FD
S214400AB023692BB104F11000124B984701280ED041
S214400AC0114B9847012038BD4FF0800372B683F330
S214400AD01188BFF36F8FBFF34F8F62B6FEE74FF0BC
S214400AE080520A4B1A60BFF34F8FBFF36F8FE7E712
S214400AF004F11000064DA84704F12400A847DFE79C
S214400B00BD054000D91A40000906400004ED00E04B
S214400B1071044000F8B550B94FF0800372B683F3C5
S214400B201188BFF36F8FBFF34F8F62B6FEE706465E
S214400B3017460D4689B101FB00F05930124B9847D5
S214400B400446E8B94FF0800372B683F31188BFF3CA
S214400B506F8FBFF34F8F62B6FEE758200A4B984719
S214400B6004460028EED02060E66325640121204636
S214400B70064B984784F85070002363652046F8BDBE
S214400B8000F158030360EFE719084000810A40006F
S214400B9050B94FF0800372B683F31188BFF36F8F5E
S214400BA0BFF34F8F62B6FEE788420AD24FF080030B
S214400BB072B683F31188BFF36F8FBFF34F8F62B661
S214400BC0FEE710B50C4602220021084B984708B1B4
S214400BD0846310BD4FF0800372B683F31188BFF371
S214400BE06F8FBFF34F8F62B6FEE700BF150B400016
S214400BF02DE9F04F85B00192B8B1044601B3022BFF
S214400C002CD01D468846664B9847002834D1019B19
S214400C10002B38D04FF0800372B683F31188BFF3B1
S214400C206F8FBFF34F8F62B6FEE74FF0800372B60A
S214400C3083F31188BFF36F8FBFF34F8F62B6FEE723
S214400C40026C002ADBD04FF0800372B683F3118823
S214400C50BFF36F8FBFF34F8F62B6FEE7E26B012A9A
S214400C60CFD04FF0800372B683F31188BFF36F8FF7
S214400C70BFF34F8F62B6FEE700274A4EDFF850A11B
S214400C80DFF82C9142E00027F7E72A464146204607
S214400C90454B9847636D9BB129462046434B984742
S214400CA0012807D14FF08052414B1A60BFF34F8F57
S214400CB0BFF36F8F3F4B9847012005B0BDE8F08FDC
S214400CC0636A73B104F124003B4B98470128F1D185
S214400CD04FF08052364B1A60BFF34F8FBFF36F8F83
S214400CE0E8E70028E6D04FF08052314B1A60BFF359
S214400CF04F8FBFF36F8FDDE72E4B98470020DCE722
S214400D0020462E4B98472E4B98470127B047A26B5C
S214400D10E36B9A42B9D3022DB7D0019B002BEBD0A0
S214400D200FB902A8D047234B9847264B9847B04761
S214400D30636CB3F1FF3F01D100236364A36CB3F14E
S214400D40FF3F01D10023A3641A4B984701A902A88C
S214400D501D4B9847E0B9B047D4F838B0E76B154B11
S214400D609847BB45CCD1019904F11000174B9847E2
S214400D702046124B9847124B98470028C5D14FF053
S214400D808053C9F80030BFF34F8FBFF36F8FBCE777
S214400D9020460A4B98470A4B984700208DE700BFED
S214400DA0411C4000BD054000A50840002D094000FC
S214400DB004ED00E009064000D91A4000DD09400075
S214400DC0BD16400055154000A11B4000D5194000F7
S214400DD0711B4000002836D02DE9F041044600291A
S214400DE03CD0022B48D01E4615468846354B984781
S214400DF0EFF311874FF0800372B683F31188BFF389
S214400E006F8FBFF34F8F62B6A26BE36B9A4201D3EC
S214400E10022E4FD13246414620462B4B9847A36C74
S214400E20B3F1FF3F41D1636D002B33D031462046AE
S214400E30264B9847002D3FD001283DD1286087F3A8
S214400E401188BDE8F0814FF0800372B683F31188B5
S214400E50BFF36F8FBFF34F8F62B6FEE7006C00287C
S214400E60BFD04FF0800372B683F31188BFF36F8F05
S214400E70BFF34F8F62B6FEE7E06B0128B3D04FF06A
S214400E80800372B683F31188BFF36F8FBFF34F8F23
S214400E9062B6FEE7636A8BB104F124000C4B9847B8
S214400EA075B168B101202860C9E7A36C0133A3641B
S214400EB00120C4E70020C2E70120C0E70120BEE7CA
S214400EC00120BCE7B5074000A50840002D094000BA
S214400ED0D91A400070B170B50446036CABB14FF000
S214400EE0800372B683F31188BFF36F8FBFF34F8FC3
S214400EF062B6FEE74FF0800372B683F31188BFF305
S214400F006F8FBFF34F8F62B6FEE7036833B30D466D
S214400F10254B9847EFF311864FF0800372B683F364
S214400F201188BFF36F8FBFF34F8F62B6A26BE36B30
S214400F309A4231D2A36B0133A363A36CB3F1FF3F54
S214400F4025D1636DC3B100212046184B98472DB379
S214400F50012823D1286086F3118870BD4368002B92
S214400F60D5D04FF0800372B683F31188BFF36F8FEE
S214400F70BFF34F8F62B6FEE7636A8BB104F124007D
S214400F800B4B984775B168B101202860E3E7A36C26
S214400F900133A3640120DEE70020DCE70120DAE726
S214400FA00120D8E70120D6E7B50740002D094000CC
S214400FB0D91A40002DE9F04784B0019298B1044612
S214400FC0E1B198460F46614B984728BB019B53B307
S214400FD04FF0800372B683F31188BFF36F8FBFF371
S214400FE04F8F62B6FEE74FF0800372B683F31188E8
S214400FF0BFF36F8FBFF34F8F62B6FEE7026C002AD7
S214401000DFD04FF0800372B683F31188BFF36F8F43
S214401010BFF34F8F62B6FEE700264D4DDFF860A166
S214401020DFF83C914BE00026F7E7E5683946204676
S214401030484B9847B8F1000F1DD1A36B013BA36303
S214401040236813B9444B9847606023696BB104F139
S2144010501000424B9847012807D14FF08052404B32
S2144010601A60BFF34F8FBFF36F8F3E4B98470120F8
S21440107004B0BDE8F087E560636A002BF5D004F164
S2144010802400364B98470028EFD04FF08052344B20
S2144010901A60BFF34F8FBFF36F8FE6E7314B984729
S2144010A00020E5E7A84760682F4B98472D4B9847A8
S2144010B030E020462D4B98472D4B98470126A847B1
S2144010C0A36B002BB1D1019B002BE7D00EB902A831
S2144010D0D047244B9847274B9847A847636CB3F1B3
S2144010E0FF3F01D100236364A36CB3F1FF3F01D1FE
S2144010F00023A3641B4B984701A902A81E4B9847A0
S214401100E8B9A847A66B174B9847002ED1D123685D
S214401110002BC7D0019904F12400184B984720466D
S214401120124B9847124B98470028C7D14FF0805330
S214401130C9F80030BFF34F8FBFF36F8FBEE720462E
S2144011400A4B98470A4B9847002091E7411C4000BD
S214401150BD054000B5094000C11D4000D91A4000F9
S21440116004ED00E009064000611C4000DD09400037
S214401170BD16400055154000A11B4000D519400043
S214401180711B400010B40B4B1B6853B10123094C34
S21440119054F8332032B10133082BF9D15DF8044BB3
S2144011A070470023034A42F8331002EBC3035860EB
S2144011B0F4E700BF14CF402070B504460D461646EF
S2144011C00F4B9847636CB3F1FF3F0BD0A36CB3F162
S2144011D0FF3F0AD00B4B9847A36B4BB120460A4BB8
S2144011E0984770BD00236364F0E70023A364F1E7EB
S2144011F03246294604F12400044B9847EEE700BFE8
S214401200BD05400009064000DD094000591A40006F
S214401210084B1B681B683BB1064B1B68DB68DB68EA
S2144012205A68054B1A6070474FF0FF32024B1A60FF
S214401230704700BF00C24020ACC2402010B50F4BE4
S2144012401B6858600E4B1B6898420ED304460D4BE5
S21440125018680A4B196804310B4B98470B4B1B68B0
S2144012609C4201D2094B1C6010BD094B1868034BC9
S21440127019680431044B984710BD00BFFCC140209C
S214401280F4C2402000C24020A5044000ACC240202A
S21440129004C240202DE9F04F83B00C9DDDF834A009
S2144012A00E9E60B1042D15D94FF0800372B683F3BD
S2144012B01188BFF36F8FBFF34F8F62B6FEE74FF0D4
S2144012C0800372B683F31188BFF36F8FBFF34F8FDF
S2144012D062B6FEE70190984691460F4636B99000B2
S2144012E0624B98470646002800F09E8058205F4B89
S2144012F098470446002800F0948006634FEA890227
S214401300A52130465A4B98476FF040464E44236BD3
S21440131003EB860323F007063B7884F834303B78AB
S214401320002B40F08480002784F83D70E562A56479
S214401330E76404F104094846DFF884B1D84704F16D
S2144013401800D8472461C5F10503A3616462276588
S21440135084F85470424601993046464B9847206080
S214401360BAF1000F01D0CAF80040434B9847434AB1
S214401370136801331360424B1B68002B66D1404B09
S2144013801C601368012B21D13E4F38463E4EB04775
S21440139007F11400B04707F12800B04707F13C00BA
S2144013A0B04707F15000B047DFF818814046B047D5
S2144013B0364F3846B0473648B0473648B047364886
S2144013C0B047364BC3F80080354B1F60354A13682C
S2144013D0013313602364E06A334A11680123834073
S2144013E00B43136000EB80004946264B03EB80001E
S2144013F02E4B98472E4B98472E4B1B68002B31D0D0
S2144014001F4B1B68DB6A9D422ED94FF080522A4BF9
S2144014101A60BFF34F8FBFF36F8F012003B0BDE854
S214401420F08F3046254B98474FF0FF30F6E73B4667
S21440143004F134020937597802F8011F13F8011FE6
S21440144000293FF470AFBB42F5D16CE7194B1B68DF
S214401450002BBBD10A4B1B68DB6A9D42B6D3084BB8
S2144014601C60B3E70120D9E70120D7E71908400000
S214401470E164400071054000BD0540006CC240205C
S214401480FCC1402008C240207104400098C2402061
S214401490B4C24020E0C24020CCC2402000C240201F
S2144014A004C2402078C2402080C240208D044000C4
S2144014B009064000C8C2402004ED00E0890840000C
S2144014C08704400084C2402010B584B000230393B4
S2144014D0029301930093822216491748174CA0475F
S2144014E001280BD020BB4FF0800372B683F31188DF
S2144014F0BFF36F8FBFF34F8F62B6FEE7104B984730
S2144015000128EFD14FF0800372B683F31188BFF302
S2144015106F8FBFF34F8F62B64FF0FF32094B1A60A2
S2144015200122094B1A600022084B1A60084B984764
S21440153004B010BDDCCE40006D184000951240004F
S214401540AD1E4000ACC24020C8C24020F4C240207D
S214401550F1064000024A136801331360704700BF2B
S21440156074C24020014B1868704700BFF4C2402048
S2144015702DE9F047424B1B68002B78D1414B1A6847
S21440158001321A601E68D6B93F4B1B681B6853B1C0
S2144015904FF0800372B683F31188BFF36F8FBFF3AB
S2144015A04F8F62B6FEE7384A1168384B18681060AD
S2144015B01960374A136801331360364B9847364BE9
S2144015C01B689E4218D20024344B1B68DB6A03EB30
S2144015D08303334A52F82330022B28BF0124314B71
S2144015E01B680BB9304B9847304B1B68002B0CBF21
S2144015F020460120BDE8F0870024DFF88C90DFF815
S214401600B8802B4F1FE04FF0FF32234B1A60DBE7CA
S214401610214A1360D8E705F11800C047E86A3A68DF
S2144016200123834013433B6000EB800051461C4B34
S21440163003EB80001F4B9847184B1B68EA6ADB6A2F
S2144016409A4228BF0124D9F800301B68002BDAD014
S214401650D9F80030DB68DD686B689E42D8D305F168
S214401660040A5046C047AB6A002BD4D1D6E70D4A91
S2144016701368013313600C4B98470024B4E700BF4F
S21440168074C24020F4C2402000C2402004C2402021
S214401690B0C2402011124000ACC24020FCC14020E5
S2144016A008C2402070C24020355E4000F8C240204C
S2144016B080C240208D044000D90440002DE9F84304
S2144016C0384B1B6853B94FF0800372B683F31188CA
S2144016D0BFF36F8FBFF34F8F62B6FEE7324B98472C
S2144016E0304B1A68013A1A601B68002B55D12F4BB5
S2144016F01B68002B32D100242D4B98472046BDE86E
S214401700F883FB68DC6804F11800B04704F104086D
S2144017104046B047E06A2A680123834013432B6063
S21440172000EB8000414609EB8000224B9847224B55
S2144017301B68E26ADB6A9A420CD23B68002BE0D117
S2144017401E4B1B68DBB11D4B1B68C3B11C4E1D4DA9
S2144017501A4C0EE001221B4B1A60EEE71A4F1B4E46
S2144017601B4DDFF87490E8E72368013B236023684D
S2144017702BB1B0470028F7D001232B60F4E7114B7C
S2144017801B68012B0BD14FF08052124B1A60BFF3EF
S2144017904F8FBFF36F8F0124AEE70024ACE70024E1
S2144017A0AAE700BF74C24020BD0540006CC240207E
S2144017B0090640008D044000FCC1402070C2402015
S2144017C071154000F8C24020B4C24020D904400001
S2144017D080C2402004ED00E008C2402010B500283A
S2144017E029D00446184B1B6853B14FF0800372B69D
S2144017F083F31188BFF36F8FBFF34F8F62B6FEE758
S214401800124B9847124B1B681C44124B1868043006
S214401810114B984748B90F4B1A6810490B68D06A65
S2144018200122824023EA02030B6020460C4B984775
S2144018300C4B984738B94FF080520B4B1A60BFF3A9
S2144018404F8FBFF36F8F10BD74C2402055154000B8
S214401850F4C24020FCC14020D904400080C2402051
S2144018603D124000BD16400004ED00E080B5DFF8B4
S2144018708880194EDFF884902AE0184B1B68012BAD
S2144018801ED82B68002BF8D0C0473468B847002CC9
S214401890F7D0134B9847F368DC68201D114B9847E8
S2144018A0114A1368013B13602B68013B2B600F4BBA
S2144018B09847206BDFF848A0D0472046D047E0E75F
S2144018C04FF08053C9F80030BFF34F8FBFF36F8F90
S2144018D0074D084FD5E700BFE0C2402008C2402071
S2144018E0BD054000D90440006CC2402009064000B7
S2144018F07CC24020BD1640005515400004ED00E077
S214401900890840002D4B1B68002B2CD110B50022B7
S2144019102B4B1A602B4B1B681B6B1A68B2F1A53F0A
S21440192003D15A68B2F1A53F21D0264B18681968F2
S2144019303431254B9847254B1B68B3FA83F3DBB20B
S214401940C3F11F0303EB8301214A52F82120BAB9A1
S2144019504FF0800372B683F31188BFF36F8FBFF3E7
S2144019604F8F62B6FEE70122154B1A6070479A68A1
S214401970B2F1A53FD9D1DB68B3F1A53FD5D1DAE7BF
S214401980134A9900C81802EB8000446864684460B3
S214401990194402460832944209D003EB83030C4AAA
S2144019A002EB83035B68DA68064B1A6010BD60681A
S2144019B0074A02EB81025060EFE700BF74C2402046
S2144019C0F8C24020FCC140201D5E400080C240203E
S2144019D008C2402038B5E0B10C46174D296818318A
S2144019E0164B984728680430154B984740B92A68E4
S2144019F014490B68D06A0122824023EA02030B6036
S214401A00B4F1FF3F10D0104B186820440F4B984756
S214401A1038BD4FF0800372B683F31188BFF36F8FE3
S214401A20BFF34F8F62B6FEE7034B19680431084890
S214401A30084B984738BD00BFFCC14020A504400075
S214401A40D904400080C24020F4C240203D124000ED
S214401A50CCC240208D044000E8B170B515460C4617
S214401A60164E31681831164B984730680430154B7F
S214401A70984740B9326814490B68D06A01228240C0
S214401A8023EA02030B60012D10D0104B1868204447
S214401A900F4B984770BD4FF0800372B683F31188A2
S214401AA0BFF36F8FBFF34F8F62B6FEE7034B1968E5
S214401AB004310848024B984770BD00BFFCC1402027
S214401AC08D044000D904400080C24020F4C240202B
S214401AD03D124000CCC2402038B5C368DC6824B311
S214401AE004F1180528461A4B98471A4B1B683BBB0F
S214401AF0251D2846164B9847E06A174A1168012369
S214401B0083400B43136000EB80002946134B03EBE6
S214401B108000134B9847134B1B68E26ADB6A9A4275
S214401B2013D90120104B186038BD4FF0800372B6B1
S214401B3083F31188BFF36F8FBFF34F8F62B6FEE714
S214401B4029460A48064B9847E5E7002038BD00BFBF
S214401B50D904400074C2402080C2402008C24020C1
S214401B608D044000FCC14020F8C24020B4C2402052
S214401B7030B1094A12680260084A126842607047EB
S214401B804FF0800372B683F31188BFF36F8FBFF3B5
S214401B904F8F62B6FEE700BFB0C24020F4C240207E
S214401BA038B5C0B1044609B30D461D4B98471D4B8A
S214401BB01A682B68B3F1FF3F2ED01B49096820688E
S214401BC0884202D061688A4228D26168501A8342AD
S214401BD017D801241CE04FF0800372B683F31188B7
S214401BE0BFF36F8FBFF34F8F62B6FEE74FF08003B1
S214401BF072B683F31188BFF36F8FBFF34F8F62B611
S214401C00FEE79B1A0B442B602046084B984700245F
S214401C10074B9847204638BD0024F9E70124F7E7EC
S214401C20BD054000F4C24020B0C24020711B4000B9
S214401C30090640000122014B1A607047F8C2402056
S214401C40054B1B6833B1054B1B68002B0CBF0220AD
S214401C500020704701207047C8C2402074C2402010
S214401C60002844D038B50446C26A21490968C96A82
S214401C708A4214D28169002905DB1D490968C96A70
S214401C80C1F10501816102EB82021A4901EB820231
S214401C906169914204D0164A1268D26AE26238BD3F
S214401CA0251D2846144B984770B9E36A03EB830119
S214401CB0104A52F821203AB910480268012101FA28
S214401CC003F322EA03030360094B1B68D86AE06209
S214401CD00A4A1168012383400B43136000EB8000DF
S214401CE02946044B03EB8000054B984738BD7047A8
S214401CF0FCC1402008C24020D904400080C2402099
S214401D008D04400000284DD038B50446274A126856
S214401D1090420AD04FF0800372B683F31188BFF327
S214401D206F8FBFF34F8F62B6FEE7C26C52B94FF06B
S214401D30800372B683F31188BFF36F8FBFF34F8F64
S214401D4062B6FEE7013AC264C06AA16C88422BD0F4
S214401D5052BB251D2846164B984768B9E16A01EBE9
S214401D608102144B53F8223033B9134803680122DA
S214401D708A4023EA02030360A06CE062C0F10503D8
S214401D80A3610D4A1168012404FA00F30B43136063
S214401D9000EB80002946074B03EB8000074B984733
S214401DA0204638BD00207047002038BDFCC140208A
S214401DB0D904400008C2402080C240208D04400024
S214401DC0054B1B6823B1044B1A68D36C0133D364AC
S214401DD0014B1868704700BFFCC1402008B5416001
S214401DE0006191420CD8D21A83699A4201D30120ED
S214401DF008BD011D094B1868094B9847002008BDCF
S214401E009A4203D2994201D3012008BD011D054BD9
S214401E101868034B9847002008BD00BF00C3402009
S214401E20A5044000FCC2402070B5154B9847154BA2
S214401E301B6813B1144B984770BD144D2846144E7A
S214401E40B047144C2046B047134B1D60134B1C60E4
S214401E50002210210520124B98470A4B186018B1F3
S214401E601049114B9847E5E74FF0800372B683F36D
S214401E701188BFF36F8FBFF34F8F62B6FEE700BF88
S214401E80BD05400030C340200906400004C3402042
S214401E907104400018C34020FCC2402000C34020CC
S214401EA0150B4000E4CE40008511400010B584B0CC
S214401EB00F4B98470F4B1B6873B100230393029355
S214401EC00193042200924FF482720B490B480C4C4B
S214401ED0A04708B104B010BD4FF0800372B683F33C
S214401EE01188BFF36F8FBFF34F8F62B6FEE700BF18
S214401EF0291E400030C34020ECCE40002D2040003C
S214401F0095124000D8B130B585B015460446154AFE
S214401F10106820B31A46009101950294052919DCF1
S214401F20114B984702284FF000030CBF089A1A46F8
S214401F3069460C4800680D4CA04705B030BD4FF0D0
S214401F40800372B683F31188BFF36F8FBFF34F8F52
S214401F5062B6FEE700236946054CA047EDE7002041
S214401F60EBE700BF30C34020411C4000F10B40006F
S214401F70D50D40002DE9F04782B08046244B984767
S214401F800746244B1B6898421BD30023C8F80030F2
S214401F90204B1F60384602B0BDE8F0870021009114
S214401FA00B46524620461C4CA04760B94FF0800373
S214401FB072B683F31188BFF36F8FBFF34F8F62B64D
S214401FC0FEE7164D164E2B681A68C2B1DB68D3F88A
S214401FD000A0DC6804F104094846B047636A20461E
S214401FE09847E369012BEED1A36953449A45D5D26D
S214401FF063602461494628680A4B9847E3E70A4AE3
S21440200010680649086013600123C8F80030BFE72F
S214402010651540002CC34020051F4000FCC24020F0
S214402020D9044000A504400000C340202DE9F047F5
S21440203088B0754E754FDFF8FC91DFF8FC81336849
S2144020401A68002A00F0CE80DB681C68B84704A8EF
S2144020506F4B98470546049B002B44D1A04212D2B2
S2144020600022611B6B4B18686B4B98476B4B98472D
S21440207000283AD14FF08053C9F80030BFF34F8F55
S214402080BFF36F8F31E0654B98473368DB68D3F812
S2144020900CA00AF10400C047DAF81C30012B04D02B
S2144020A0DAF82430504698471FE0DAF818102346EE
S2144020B02A46214450465A4DA8470128F0D10021CF
S2144020C000910B4622465046564CA0470028E7D182
S2144020D04FF0800372B683F31188BFF36F8FBFF360
S2144020E04F8F62B6FEE74D4B98474A4D4E4C06E042
S2144020F007990698059B9847049B002B09DA00230E
S2144021001A4604A92868A047002898D0049B002BAC
S214402110EEDBDDF818A0DAF8143013B10AF104004B
S214402120C04703A83A4B9847049B092BE7D801A21F
S21440213052F823F05D2140005D2140005D214000C3
S214402140FF204000B1214000DD2140005D214000DD
S2144021505D214000FF204000B1214000059CDAF898
S214402160181023460246214450462D4CA0470128CD
S214402170BCD1DAF8243050469847DAF81C30012BA8
S214402180B4D1DAF81820002100910B460598024495
S2144021905046244CA0470028A8D14FF0800372B682
S2144021A083F31188BFF36F8FBFF34F8F62B6FEE79E
S2144021B00599CAF8181031B1034602460144504604
S2144021C0174CA04792E74FF0800372B683F311880E
S2144021D0BFF36F8FBFF34F8F62B6FEE75046134B89
S2144021E0984783E7B84704A8094B98470546049B99
S2144021F0002B7FF478AF0E4B1B681A68B2FA82F257
S214402200520900242DE700BFFCC24020551540006F
S214402210751F400030C34020B9114000BD16400035
S214402220DD1D4000051F4000B50F400089084000F6
S21440223000C3402004ED00E0D9044000102808D137
S214402240B1F1805F05D108B5024B1B6803B19847D2
S21440225008BD704734C3402050B170B5441E054E8B
S214402260054D3046A847013CB4F1FF3FF9D170BD5B
S214402270704700BF35160300010040202DE9F041AD
S214402280094F4FF40038C7F83480084D08266E636F
S2144022906420074CA047C7F830806420A0472E63D0
S2144022A06420A047BDE8F08100120E4000100E40AA
S2144022B05922400010B50022144B1A600A20144CD4
S2144022C0A0470B20A0470C20A0471020A047112075
S2144022D0A047104B08221A61C3F8A0201A630E4A82
S2144022E04FF400311161C2F8A010116304221A6144
S2144022F0C3F8A0201A63094B1B6813F0010F01D0E6
S214402300064B1B68064B9847002010BD34C3402040
S2144023109955400000100E4000120E4010E000E0BC
S2144023207D22400030B583B0174B18601020174B05
S21440233098474FF020517C20154B9847154C01226A
S2144023404FF080512046144B9847144B009351232E
S2144023504FF0805210212046114DA8474FF0805133
S2144023602046104B984720460F4B98470F4BA022CD
S21440237083F810234FF480321A600522102120463D
S2144023800B4B984703B030BD34C3402099554000AE
S214402390A151400000140E40B14F40003D22400085
S2144023A0215340008F5140009751400000E100E02B
S2144023B0F553400008B528B94FF080510448054B06
S2144023C0984708BD4FF080510148034B984708BDD9
S2144023D000140E40935140008F514000F8B5394CE0
S2144023E04FF480112166C4F8901061656162C4F8AC
S2144023F08010236F0B432367636F23F48013636758
S2144024004FF400122266C4F8902062656262C4F8F7
S2144024108020236F13432367636F23F4001363679F
S2144024204FF480032366C4F8903063656362C4F853
S2144024308030206F18432067606F20F4800060670C
S2144024406160626063604FF0007666602660266179
S21440245026631D4D28461D4B984702232B6080233C
S2144024602B606B6843F001036B606B6843F01003AE
S2144024706B6001212846164B9847002201212846CA
S214402480144B9847012211462846134B9847002282
S21440249001212846114B984711491248124B98473C
S2144024A0C2B201212846114B984700231A46012103
S2144024B028460F4FB84701232B6026630D4B98479D
S2144024C00020F8BD00140E4000800040ED5540004E
S2144024D01956400093564000B1564000CF56400033
S2144024E000A3E111006CDC02E3564000F9564000C0
S2144024F0215740007D2240002DE9F04F83B003284D
S21440250044D10E684D680C8900238DF80430ADF830
S214402510063086B1002D36D14FF00108994601AD00
S2144025204FF00072204B5A632CB3204FDFF894B024
S214402530DFF894A006E04FF000084FF0010901AE26
S214402540EEE7C4B100231A4631783846D8470DF135
S21440255005020DF106013846D047BDF806302B700F
S214402560013CA4B2B8F1000F00D10135B9F1000F1B
S214402570E7D10136E5E74FF000720B4B1A630020B7
S21440258003B0BDE8F08F6FF00500F9E740F21F1288
S21440259007490848084CA0470848A0470848A047AD
S2144025A04FF0FF30ECE700BF00140E4000800040C4
S2144025B0F4CE400004CF40008563400018CF400072
S2144025C030CF40005F5640002F56400002220E4B50
S2144025D01A6003F5592303F580634FF400125A61DD
S2144025E0C3F8A0204FF480125A61C3F8A0204FF4DD
S2144025F080025A61C3F8A0204FF000725A61C3F8B7
S214402600A0200020704700BF008000403AB101394A
S214402610821811F8013F00F8013B9042F9D170470B
S21440262022B1821800F8011B9042FBD17047037814
S21440263043B1002301339BB210F8012F002AF9D191
S214402640184670470023FBE7024A13780133DBB293
S214402650137070473BC340207047000000B583B0FE
S21440266001200B4B984701A941F27000094B98474F
S214402670034618B1184603B05DF804FB019941F0D3
S2144026800201019141F27000034B98470346F1E77F
S214402690B5234000493940005539400008B5124B33
S2144026A01B784BB9114B1B78DBB2032B0CD00F4B6E
S2144026B01B78DBB2042B07D00B4A13780133DBB20E
S2144026C013700023184608BD094B98470346002858
S2144026D0F8D145F2786141F27400064B98470346BC
S2144026E00028E9D0EEE700BF39C3402038C3402079
S2144026F0B9344000553940001E4B1B7823B11D4A63
S2144027001378013BDBB213701A4B1B78002B2ED18B
S214402710194B1B78DBB2032B06D0174B1B78DBB26A
S214402720042B01D0002323E000B583B0002301939F
S21440273044F2213141F27400104B9847034618B1D9
S214402740184603B05DF804FB01A901200C4B9847DE
S21440275003460028F4D1019911F0020FF0D021F081
S214402760020101910120054B98470346E8E7002304
S2144027701846704739C3402038C34020553940007A
S214402780493940002DE9F04F87B0074688469246C3
S2144027909946109CBDF84460BDF8485001F07F0350
S2144027A08DF815308DF814000823ADF81630002C3F
S2144027B000F09F80BDF8163016FA83F32B449BB288
S2144027C0ADF816305C4B98478346002840F0A28010
S2144027D000230393ADF806300293029B1F430297F3
S2144027E0029B43EA08230293BDF81620029B43EA65
S2144027F002430293029941F28C00504B984783461D
S214402800002840F0918000230293029B43F002038D
S2144028100293029941F27800484B98478346002835
S21440282040F0828000230393ADF80630BDF80630B2
S2144028309BB2B3F57A7F16D241F27808404F02A990
S2144028404046B84778B9029B13F0020F59D0BDF8FE
S214402850063001339BB2ADF80630BDF806309BB269
S214402860B3F57A7FEBD3039B002B61D0039B049395
S214402870BDF816309BB2ADF816300498082205A96C
S214402880304B9847834600284ED1049B0833049328
S214402890BAF1000F0AD004984A465146294B984749
S2144028A08346002840D1049B4B4404937CB1049B50
S2144028B0A5EB09051D440495049832462146214B54
S2144028C09847834600282FD1049B1E440496039BBA
S2144028D09B000293029B43F002030293029941F24B
S2144028E06C00164B98478346F0B9174B984783467B
S2144028F01AE0BDF8163019FA83F39BB2ADF81630DD
S21440290060E703A911480E4B98470028ABD0002338
S2144029100393A8E740F29F120D490E480E4CA0477D
S2144029200E48A0470E48A047584607B0BDE8F08F6F
S2144029306FF0020BF8E700BF9D2640005539400077
S21440294049394000BD394000F926400000041500D2
S21440295034CF400004CF40008563400088D140001B
S21440296030CF40002DE9F04387B0DFF8F892A24F11
S214402970A24EDFF8F482D5E0042204A90598A04BC5
S2144029809847BDF812309BB2ADF812300446002886
S21440299030D1BDF812309BB29D4205D0BDF8123002
S2144029A09BB2EB1A042B33DC9DF81030DBB2012BC4
S2144029B047D09DF81030DBB2022B5FD09DF8103028
S2144029C0DBB2042B68D09DF81030DBB2062B71D0FA
S2144029D09DF81030DBB2072B7AD040F202224146F7
S2144029E03046884CA0478848A0478848A0476FF0A4
S2144029F0050496E04FF4EB7241463046814DA847B9
S214402A008348A8478148A8470120824B984788E0DA
S214402A1040F2DF12414630467A4CA047BDF81220BD
S214402A209DF810309DF81110009192B229467A48D0
S214402A30A0477648A0470120764B98476FF005049C
S214402A406FE0764B1B6843B19DF81100BDF812103D
S214402A500839059A083289B29847714B1B78002B83
S214402A605CD140F2092241463046664CA0476D484C
S214402A70A0476648A0476C4B98474FE06B4B1B6897
S214402A80002BEAD09DF81100BDF812100839059ABF
S214402A90083289B29847E0E7654B1B68002BDCD0CC
S214402AA09DF81100BDF812100839059A083289B20F
S214402AB09847D2E75F4B1B68002BCED09DF811009D
S214402AC0BDF812100839059A083289B29847C4E70B
S214402AD0594B1B68002BC0D09DF81100BDF8121052
S214402AE00839059A083289B29847B6E740F211226B
S214402AF041463046434CA0475048A0474348A0472D
S214402B006FF001042FE04FF40672414630463D4CCC
S214402B10A04703994A48A0473C48A047494B984796
S214402B20044604BB99F80030002B00F09F8099F8CB
S214402B300030013BDBB289F800301FE040F21E2235
S214402B40414630462F4DA8473F48A8472F48A847FC
S214402B5009E04FF40972414630462A4DA8473B48A3
S214402B60A8472A48A84740F2432239493046254DCF
S214402B70A84721463748A8472448A847B8470446A8
S214402B800028E6D103A941F27000334B984704462B
S214402B900028D3D1039B13F0010FB4D01D4B9847A8
S214402BA0039921F00101039141F270002B4B9847A5
S214402BB004460028D7D10022194B1A70039DC5F34E
S214402BC08B05002D92D006A941F8042D41F28400D1
S214402BD0214B9847044600283FF4CEAE4FF4E772A8
S214402BE041463046074DA8471D48A8470748A847CE
S214402BF00120084B984794E79D26400004CF4000AC
S214402C006139400085634000F4CF400030CF40003B
S214402C109CCF4000B5234000B4CF400050C3402076
S214402C203AC340200CD040005D26400044C34020BC
S214402C3048C340203CC340204CC3402030D04000D6
S214402C4044D04000F926400060D0400084D0400088
S214402C5048CF4000A4D04000493940005539400094
S214402C6074CF40003BC3402040CF4000002007B018
S214402C70BDE8F0832DE9F04383B01C46002A18BF18
S214402C80002903D005460F461646B8B94CB1012276
S214402C90324B1A70324B98470346184603B0BDE88D
S214402CA0F08340F269222F492F48304CA0473048E5
S214402CB0A0473048A0476FF00B03EEE7694641F265
S214402CC070002D4B984703460028E6D1DDF800807B
S214402CD001A941F28400284B984703460028DCD1DE
S214402CE0C8F38B0846451CD8019B9D4228D305EB6C
S214402CF006094344994523D83246394628461F4B51
S214402D00984703460028C8D1019A9044C84501D048
S214402D10002CC2D00122114B1A70114B9847034623
S214402D20BBE740F27A220F490F48104CA047424674
S214402D3031461348A0470F48A0476FF00B03ACE757
S214402D404FF4207207490848084CA0470D48A04752
S214402D500848A0476FF00B039FE700BF3AC34020E8
S214402D605D26400058CF400004CF400085634000B9
S214402D70D4D0400030CF400049394000613940004F
S214402D80F4D0400038D1400038B5431E062B1DD83D
S214402D90DFE803F00804100C1C141800134B1960ED
S214402DA0002038BD124B1960002038BD114B196009
S214402DB0002038BD104B1960002038BD0F4B1960FD
S214402DC0002038BD0E4B1960002038BD044640F246
S214402DD0B9220C490C480D4DA84721460C48A84737
S214402DE00C48A8476FF00B0038BD00BF44C34020D6
S214402DF050C3402048C3402040C340203CC34020EE
S214402E004CC3402064CF400004CF40008563400060
S214402E107CD1400030CF400010B50024094B1C60E8
S214402E20094B1C60094B1C70094B1C70094B1C70ED
S214402E3009480A4B98470A4903200A4B98472046B8
S214402E4010BD00BF50C3402044C3402039C340207B
S214402E5038C340203BC3402049264000252340003D
S214402E6059264000892D400030B59FB015462C2885
S214402E702ED004461B283BD0062849D00E2825D005
S214402E80322855D02F2863D0342876D0112800F029
S214402E909380132800F0A880042800F0B7806528A7
S214402EA000F0C680092800F0D5802A2800F0E4808B
S214402EB0202800F0F3804FF4957286498648874D67
S214402EC0A84721468648A8478648A8471FB030BD31
S214402ED00023042203A92846834CA0470028F5D1A6
S214402EE0824B1B68002BF1D003A92C209847EDE7B6
S214402EF00023082203A928467B4CA0470028E5D19A
S214402F007A4B1B68002BE1D003A91B209847DDE7CE
S214402F100123302203A92846734CA0470028D5D168
S214402F20724B1B68002BD1D003A906209847CDE7EB
S214402F300023102203A928466B4CA0470028C5D181
S214402F406A4B1B68002BC1D003A932209847BDE7C7
S214402F506422002103A8664B98470023642203A9F5
S214402F602846614CA0470028B0D1604B1B68002B18
S214402F70ACD003A92F209847A8E70023042203A932
S214402F802846594CA0470028A0D15A48534CA04741
S214402F900399CBB20093C1F30723C1F30742090E4E
S214402FA05548A0474F48A047504B1B68002B8DD034
S214402FB000213420984789E70023504A13700422A2
S214402FC003A92846484CA04700287FF47FAF9DF8C9
S214402FD00C204B4B1A70454B1B68002B3FF476AFCA
S214402FE003A91120984771E700232C2203A92846FD
S214402FF03D4CA04700287FF469AF3C4B1B68002B34
S2144030003FF464AF03A9132098475FE700230422E8
S2144030101CA92846344CA04700287FF457AF334BB2
S2144030201B68002B3FF452AF1CA9042098474DE77D
S214403030002304221CA928462B4CA04700287FF4D6
S21440304045AF2A4B1B68002B3FF440AF1CA96520B8
S21440305098473BE70123642203A92846224CA04711
S21440306000287FF433AF214B1B68002B3FF42EAF74
S21440307003A90920984729E70123042203A92846E3
S214403080194CA04700287FF421AF184B1B68002B33
S2144030903FF41CAF03A92A20984717E700230822CD
S2144030A003A92846104CA04700287FF40FAF012301
S2144030B0BDF81020039905F10800A04700287FF4CA
S2144030C005AF0A4B1B68002B3FF400AF03A9202036
S2144030D09847FBE6A8D1400004CF400085634000F7
S2144030E004D2400030CF4000752C400054C34020EE
S2144030F021264000D8D14000E4D1400059C34020AA
S21440310058C34020F0B58BB001238DF80730002817
S21440311050D00268294B1A600022294B1A700DF1D4
S2144031200700284B9847044610B120460BB0F0BD28
S214403130254B98470446002838D124490120244B83
S214403140984702A8234B98470446234F3846234DBA
S214403150A8479DF80E309DF80D209DF80C1020488D
S214403160A847204E3046A8473846A8479DF8113015
S2144031709DF810209DF80F101B48A8473046A847DA
S2144031803846A8470023032213211848A84730464C
S214403190A84714F10D0FC8D140F2D512144915486E
S2144031A0A8471548A8473046A847BEE70020134B17
S2144031B09847BAE76FF00B04B7E700BF54C3402008
S2144031C059C34020C93A4000192E4000692E40009D
S2144031D0892D4000193A4000D8D140008563400010
S2144031E0C4D2400030CF4000E0D24000FCD2400085
S2144031F0B4D1400004CF400018D34000953B400077
S21440320008B5014B984708BD652940002DE9F041B7
S214403210A0B080460D4614461E46BDF89870012A5A
S21440322003D0002B37D0022A42D06B1EDBB21F2BB6
S21440323075D8FF2F01D00D2F7ED82A4641460DF176
S2144032405A00774B984720AB1D44002305F8263C90
S214403250ADF858709DF89C30003318BF01238DF8A8
S2144032607B308DF85540032C73D0022C00F0AA809A
S214403270042C00F0C180012C40F0C480002302934F
S214403280019300936C2305AA28210120654CA04792
S21440329020B0BDE8F08140F2032263496348644CA5
S2144032A0A0476448A0476448A0476FF00B00EFE78C
S2144032B01846624B98474028B7D13378A3F13A0274
S2144032C0D2B2062A1ED9A3F13002D2B2362A19D873
S2144032D0473BDBB2192B15D9314606F13F0011F8B2
S2144032E0013FA3F13A02D2B2062A0BD9A3F130022B
S2144032F0D2B2362A06D8473BDBB2192B02D98842CF
S214403300EDD192E740F20F2247494848484CA04743
S2144033104B48A0474848A0476FF00B00B8E740F23C
S214403320192241494148424CA0474648A047424896
S214403330A0476FF00B00ABE740F222223A493B48E9
S2144033403B4CA0474048A0473B48A0476FF00B0087
S2144033509EE73378013BDBB28DF81430032B13D84D
S2144033607278531E8DF8153002F0EF030B2B1AD1EE
S214403370B11C0DF116002A4B9847737820AA1344C7
S214403380002203F86A2C79E740F23922264927487A
S214403390274CA0479DF814102C48A0472648A04725
S2144033A06FF00B0074E74FF410721F491F48204C13
S2144033B0A0479DF815102648A0471F48A0476FF025
S2144033C00B0065E730461D4B9847431E9BB23F2B8C
S2144033D005D8421C314605A8114B98474EE740F2A7
S2144033E04F2211491148124CA0471A48A04712488C
S2144033F0A0476FF00B004BE73E22314605A8084B2E
S21440340098473BE740F25F2207490848084CA047E8
S2144034101148A0470848A0476FF00B0038E700BFA8
S2144034200D26400085274000C4D1400004CF400010
S2144034308563400018D2400030CF40002F26400021
S2144034402CD240003CD2400050D240005CD24000DB
S21440345078D2400094D24000B0D2400010B582B03E
S21440346000240194BDF810400094024CA04702B0DE
S21440347010BD00BF0D32400000207047F0B583B04D
S21440348004464FF4A5550A4E0A4F21462846B047F3
S21440349054B102A9002341F8043D2846B847002805
S2144034A0F3D1019B9C42F0D1002003B0F0BD00BF99
S2144034B055394000493940002DE9F04F83B001208E
S2144034C03C4B984701A901203B4B9847824638B968
S2144034D000244FF00108DFF80891364D374F20E0C2
S2144034E0722237493748384CA0473848A0473848B2
S2144034F0A04709E0962232493248334CA047354827
S214403500A0473348A047B246504603B0BDE8F08FC8
S214403510019941F002014046C847009B13F0040F52
S214403520F2D1019941F002014046C8474046A847BB
S2144035306946294B1868204B984708B9009BBBB989
S214403540254E0E2333604046A847694630681A4BDE
S214403550984708B9009B5BB91F4E1323336040461B
S214403560A84769463068144B984706460028C1D19C
S214403570194E009B13F0040FC6D10134A7FB042359
S2144035805B0803EB43039C42C2D10220A84769462E
S2144035903068094B9847009B13F0040FE9D1AA22E4
S2144035A007490848DFF820B0D8470C48D8470848AD
S2144035B0D847DEE75922400049394000ABAAAAAABC
S2144035C034D3400004CF400085634000A4D340007D
S2144035D030CF4000C4D3400014004020E4D3400025
S2144035E05539400000B583B001A941F20840154B5B
S2144035F09847E8B9019941F48071019141F2084039
S214403600114B9847B8B901A94FF4D0500D4B984785
S214403610A0B9019941F4803101914FF4D0500A4B42
S2144036209847002818BF6FF0050003B05DF804FB0C
S2144036306FF00500F9E76FF00500F6E76FF005005C
S214403640F3E700BF493940005539400010B582B015
S214403650254B1C6824B1244B1C68204602B010BD84
S21440366019464FF48050214B984718B100221E4B04
S2144036701A60F2E701A941F2F4301C4B984718B1A2
S2144036800022194B1A60E8E7174B1B68184A93420A
S2144036900DD0184A934211D0174A934218D0124A76
S2144036A0136823F4702343F4A0231360D3E7019BED
S2144036B0012BF4D001320C4B1A60F0E7019B032B30
S2144036C0EDD0042B0CBF01320C4A074B1A60E6E7DC
S2144036D005494FF46C10054B98470028DFD0002270
S2144036E0014B1A60B9E700BF5CC34020493940002F
S2144036F0A0021000B0021000F0001000B20210004D
S2144037002DE9F041074641F21405284C284E28463C
S214403710A047002802DB0120B047F8E72548234BA6
S214403720984710F0010F10D1DFF884801F4E224DCD
S2144037300120C0474FF00C10B04704462A460146C9
S2144037401E481F4B9847AC42F2D1022F19D0032F88
S21440375022D0042F14BF002480241A4B9847C0F36D
S2144037600B00B0F5687F0CBF44F002002046164BB5
S214403770984716494FF00C10154B98470020BDE867
S214403780F08114491448124CA0474FF4801141F27E
S2144037908C00A0470024E0E70E490F480C4CA04799
S2144037A0002141F28C00A0470024D6E73D39400076
S2144037B059224000BC0702009ED0AD1008D44000FD
S2144037C0856340004D3640007D344000612F52EF07
S2144037D0553940007DD51C3CAC070200F0B583B09F
S2144037E041F28C030193184B00930238C0B2012873
S2144037F011D94FF0FF3400200227144E144D009B81
S214403800984212D03846B0470198A847013CF6D1B6
S2144038106FF004000EE00F4B0193A3F12253A3F583
S2144038201113A3F2E9530093E3E7009A064B9A423A
S21440383002D0002003B0F0BD002141F28C00064BC0
S21440384098470020F6E700BF36265302592240002C
S2144038503D394000AC07020055394000F0B583B012
S21440386002A9002341F8043D4FF4A050244B98474A
S21440387020BB019921F4806101914FF4A050214B67
S2144038809847054628BB0A241D4E1E4F01A94FF4F3
S214403890A050B047054638BB019911F4806F0AD056
S2144038A021F4806101914FF4A050B8470546631E4D
S2144038B013F0FF04EAD1284603B0F0BD40F23122AF
S2144038C011491248124CA0471248A0471248A04738
S2144038D0CFE740F237220C490C480D4CA0470F4822
S2144038E0A0470D48A047E6E740F23E220649074873
S2144038F0074CA0470A48A0470748A047DBE700BF59
S214403900493940005539400044D3400004CF400078
S2144039108563400050D3400030CF40006CD3400019
S21440392088D3400008B5014B984708BDDD234000CA
S21440393008B5014B984708BDCD25400008B5014B5A
S214403940984708BD9141400008B5014B984708BDCF
S214403950A941400008B5014B984708BDC141400009
S2144039602DE9F047074689461546124BB3F80080C6
S214403970A8F108081FFA88F8424519D94446002697
S214403980DFF834A0424609EB06013846D0470346E6
S21440399058B92D1B26442744A542F3D8AAB209EBB2
S2144039A006013846044B984703461846BDE8F0875C
S2144039B00026F3E710004020ED4240002DE9F04796
S2144039C0074689461546124BB3F80080A8F108080A
S2144039D01FFA88F8424519D944460026DFF834A035
S2144039E0424609EB06013846D047034658B92D1BD8
S2144039F026442744A542F3D8AAB209EB0601384626
S214403A00044B984703461846BDE8F0870026F3E780
S214403A1010004020B543400030B583B0044602A9AC
S214403A20002341F8043D2448244B98470546019A14
S214403A30234B9A4239D0019B1A0C91B2080AE07186
S214403A40C1F30311217202F00F0262729AB2110A98
S214403A502171C2F30312627103F00F03A371194B75
S214403A60984720602279A37903F00F0343EA0223A4
S214403A7062791201D2B21343E179627A02F00F0200
S214403A8042EA0122217A0901C9B20A4341F23031A1
S214403A908A4288BF6FF00C0541F22F3293428CBFAA
S214403AA028466FF00C0003B030BD01A941F2480033
S214403AB0024B98470546BEE7AC070200493940002E
S214403AC0C3C15DD74D36400038B5002837D004789E
S214403AD0631EDBB2042B28BF012400201E4B9847F0
S214403AE0054600282DD11D481D4DA8471D4B98471B
S214403AF001461D48A8471D48A8471D4B98472046E5
S214403B001C4B98470546B0B920461B4B9847054680
S214403B1088B9023CE4B2012C0FD9184B98470546A9
S214403B2058B14FF4AE72164916480D4CA047164889
S214403B30A0470E48A047154B9847284638BD012455
S214403B40CBE74FF492720E490E48054CA0471048FA
S214403B50A0470648A047F0E725394000D8D14000A6
S214403B60856340004D364000D0D4400030CF400002
S214403B70D941400001374000DD374000E535400080
S214403B8018D4400004CF400094D44000313940005F
S214403B90B4D4400038B5194B984758B90020184B54
S214403BA09847044698B9174B98470446D0B9164BE1
S214403BB098470AE004464FF4BA7214491448154D23
S214403BC0A8471548A8471548A847204638BD40F29C
S214403BD07B120E490E480F4DA8471148A8470F487C
S214403BE0A847F2E740F2811208490948094DA8471C
S214403BF00C48A8470948A847E7E700BF5D3840009B
S214403C00394C4000313940008541400024D44000C2
S214403C1004CF40008563400034D4400030CF40009D
S214403C2054D4400078D4400000B585B000230193BA
S214403C300290ADF80C1001A90320024B984705B03E
S214403C405DF804FBF92440002DE9F04182B00546BA
S214403C5000F13B03DBB2012B27D9CF2825D00B241C
S214403C604FF00108234F41460DF10700B84706467E
S214403C7020BB9DF80730AB422CD0631E13F0FF04E8
S214403C80F1D10B2401271B4D39460DF10700A847FB
S214403C9010BB9DF8073053B3631E13F0FF04F3D1F7
S214403CA00126304602B0BDE8F08101210DF1070043
S214403CB0104B98470028D2D00026F2E740F2271251
S214403CC00D490E480E4CA0470E48A0470E48A04748
S214403CD00026E6E70B24D5E740F2351206490748AA
S214403CE0074CA0470748A0470748A047D9E7012602
S214403CF0D7E700BF293C4000E8D4400004CF40004E
S214403D008563400028D9400030CF40002DE9F04F71
S214403D1085B083468A4617464FF00009374D27E060
S214403D2040F2571236493748374CA0473748A047E5
S214403D303748A04700230193019805B0BDE8F08FAF
S214403D40002C2EDD41460BEB0900A8470446002810
S214403D5034D11FB92F4B1B78002B3AD0C1440FFAF1
S214403D6089F9AAEB080A1FFA8AFABAF1000F41D07D
S214403D70D046BAF5005F28BF4FF400580A24012603
S214403D8031460DF10B00A84701900028C8D19DF898
S214403D900B301B090F2BD3D0013C24B2B4F1FF3FAC
S214403DA0EED140F2631216491648174CA0479DF8CC
S214403DB00B101948A0471648A047BDE74FF4B67207
S214403DC00F491048104CA0471448A0471048A04739
S214403DD0B2E7022103A8A8470028BFD040F27712D6
S214403DE007490848084DA8470D48A8470848A84727
S214403DF00194A1E7012301939EE700BF293C4000C0
S214403E00F4D4400004CF4000856340005CD94000B5
S214403E1030CF400060C3402090D94000C0D9400019
S214403E20F4D9400000B585B0019000230293ADF868
S214403E300C1001A90320024B984705B05DF804FB1F
S214403E40F924400070B584B09DF820408DF80400F9
S214403E50C1380E2800F2A280DFE800F0454566191A
S214403E602A3354547F08A0A0A0A03C000B0C8DF829
S214403E7005300B0A8DF806308DF807100521554B96
S214403E801B78002B00F08C800139C9B29AE0C1F350
S214403E90072344B98DF805308DF8061000238DF8B9
S214403EA007300521EBE763F07F038DF80530F3E735
S214403EB000238DF805308DF806308DF80730052143
S214403EC0DDE700238DF805308DF806308DF8073095
S214403ED00521D4E7FF238DF805308DF806308DF8A0
S214403EE007300521CBE70A0C8DF805200A0A8DF825
S214403EF006208DF807101A0A8DF808208DF809302C
S214403F000721BCE70A0C8DF805200A0A8DF8062022
S214403F108DF807101A0C8DF808201A0A8DF809201B
S214403F208DF80A300821AAE7C1F3072384B98DF833
S214403F3005308DF80610130E8DF80730130C8DF8EB
S214403F400830130A8DF809308DF80A20082196E7C4
S214403F5063F07F038DF80530EBE70B0C8DF80530EA
S214403F600B0A8DF806308DF80710130E8DF80830C2
S214403F70130C8DF80930130A8DF80A308DF80B2093
S214403F8009217CE74FF4847213491448144CA04727
S214403F901448A0471448A047002019E0002017E026
S214403FA04E1E01AB9D197F201A46104C12F8013B5D
S214403FB083EA4003E05C9542F8D104AB1E444300DC
S214403FC006F80C3C01A80A4B98470028DAD1012095
S214403FD004B070BD60C34020E0D4400004CF400031
S214403FE085634000FCD8400030CF40005CD54000A0
S214403FF0253E400070B582B00446312835BF0123C7
S2144040000023C325C925009304230A4601462846B3
S214404010154EB04701280DD040F2EB121349144814
S214404020144DA84721461448A8471448A8470020DE
S21440403002B070BD2846124B98470128F8D040F28F
S214404040F1120A490A480B4DA84721460D48A84791
S2144040500A48A84700240094234622462146CF20FB
S214404060014DA8472046E3E7453E400014D54000B2
S21440407004CF400085634000ACDA400030CF4000BB
S214404080493C4000D8DA40002DE9F04184B004466F
S2144040908846B0F5807F35BF01260026C425CA2550
S2144040A0009604230022014628462C4FB847012894
S2144040B00ED040F245222A492A482B4DA847214691
S2144040C02A48A8472A48A847002004B0BDE8F081FF
S2144040D02846284B9847012814D040F24B222049C6
S2144040E02048214DA84721462348A8472048A847AE
S2144040F000240094234622462146CF20174DA84749
S2144041002046E2E73246042103A81C4B9847012884
S21440411010D19DF80D209DF80E301B0443EA022373
S2144041209DF80C2013439DF80F2043EA0263C8F81D
S2144041300030CAE740F2532209490A480A4CA047D1
S2144041400F48A0470A48A04700240094234622462A
S2144041502146CF20014DA8472046B6E7453E4000C1
S21440416034D5400004CF4000856340002CDA400040
S21440417030CF4000493C400058DA40000D3D4000FA
S2144041808CDA40000020014B1870704760C3402016
S21440419000B583B001A9034B9847019803B05DF87A
S2144041A004FB00BF8940400008B5044B98470128EF
S2144041B00CBF00206FF0050008BD00BF89404000DE
S2144041C008B5044B984701280CBF00206FF0050047
S2144041D008BD00BFF53F400030B583B0002302A9BC
S2144041E041F8083D344A13704EF62400334B984746
S2144041F048B3314B1B787BB9009921F07C0141F0E4
S214404200500100914EF624002D4B98470446002856
S21440421039D00122284B1A7001A94FF48050274B01
S214404220984700283AD04EF62400264B984720F070
S214404230700141F050014EF62400234B984700246D
S214404240204603B030BD01221B4B1A7040F2C522F7
S2144042501E491F481F4CA0471F48A0471F48A0475D
S21440426069464EF62400154B984704460028C0D1B0
S2144042704FF4327215491648164DA8471848A847B5
S2144042801648A847DCE740F2D22210491048114DA4
S214404290A8471448A8471148A847D1E74FF43772B3
S2144042A00A490B480B4CA0470F48A0470B48A0476D
S2144042B06FF00504C4E700BF60C34020894040005B
S2144042C0F53F400091414000C141400050D540007C
S2144042D004CF4000856340005CD6400030CF4000AD
S2144042E0ACD64000DCD6400010D74000F0B583B0D6
S2144042F004460F461546002200922B460146C8202B
S214404300224EB04701280ED04FF41D722049214856
S214404310214DA84721462148A8472148A8476FF085
S214404320050003B0F0BDC8201E4B9847012812D0A8
S21440433040F27A2216491748174DA84721461A4890
S214404340A8471748A847002100910B460A46CF20A9
S2144043500E4CA047E3E7002229463846134B9847C1
S214404360012811D04FF4217209490A480A4CA04747
S2144043700F48A0470A48A047002100910B460A462E
S214404380CF20024CA047CAE70020CAE7453E40007F
S21440439044D5400004CF40008563400038D74000F5
S2144043A030CF4000493C400068D740000D3D4000BB
S2144043B0A0D740002DE9F04385B004468846154610
S2144043C0002200922B460146C7204D4EB04701289A
S2144043D00FD040F20F224B494B484C4DA847214640
S2144043E04B48A8474B48A8476FF0050005B0BDE8C6
S2144043F0F083C720484B9847012812D040F2152238
S21440440040494148414DA84721464448A84741486D
S214404410A847002100910B460A46CF20384CA047BB
S214404420E2E70024ADF80C403D4FDFF80C911DE06C
S214404430B5F5005F94BF0323022363F00F038DF8A6
S2144044400B3001210DF10B00B847E8B9314608EBB7
S2144044500400B847002835D199F80030002B3CD0EE
S214404460344424B2AD1BADB2002D46D02E46B5F531
S214404470005F28BF4FF40056002CD9D1B5F5005F39
S21440448094BF03230123D8E74FF4D47225491E482E
S2144044901E4CA0472448A0471E48A04740F226226C
S2144044A018491948194CA0472048A0471948A04722
S2144044B000240094234622462146CF20104DA8478C
S2144044C0204693E740F2B11216490F480F4CA047DA
S2144044D01748A0470F48A047E0E7022103A8B8477F
S2144044E00028BDD040F2BB120E490748074CA047F3
S2144044F01048A0470748A047D0E7002076E700BF0F
S214404500453E400024D5400004CF4000856340002F
S214404510C8D7400030CF4000493C4000F8D7400064
S214404520253E400004D5400030D84000D4D8400056
S21440453068D840009CD8400060C340202DE9F84F22
S214404540BDF8284094B181460E46924698460301EF
S2144045502249CB5853B101EB00139B889BB22BB139
S21440456001EB00139B7ADBB2012B01D0BDE8F88F3C
S214404570F48001EB0017DFF87CB006E02546012307
S2144045800BE0641BA4B2A844ECB1BB88E31A1BB290
S214404590002BF3DDBD88ADB2002339682A4640467D
S2144045A0D84790B93B683360B580F3885B1BF3808F
S2144045B00B4B1B68002BE4D0094B1B683246514618
S2144045C048469847DDE7BDE8F88F0648064DA847B9
S2144045D021460648A8470648A847C7E758CF402080
S2144045E008D04020D8D140008563400010DB400012
S2144045F030CF4000752C4000F0B599B014464128A5
S21440460049D00D4642285FD0432875D0442800F054
S214404610B0804B2800F0AD804A2800F0CC80A0F156
S2144046204603DBB2072B00F2F480852222FA03F31E
S21440463013F0010F00F0ED80482814BF0627092725
S2144046400023102203A92046934EB047002840F08E
S214404650B0809DF91800BDF81A10904A02EB00127F
S21440466000231373BDF914E0BDF81630BDF80E6094
S214404670ADF82660049E0A96D28892B2914200F027
S214404680AC80102D40F29580012300221146104642
S214404690814CA0478DE00023042207A920467E4C8B
S2144046A0A047002840F085809DF81D308DF80C30DE
S2144046B07B4B1B68002B7CD0794B1B6803AA0121DF
S2144046C09DF91C00984774E00023042207A9204661
S2144046D0714CA04700286CD19DF81D308DF80C30E9
S2144046E06F4B1B68002B64D06D4B1B6803AA0221DE
S2144046F09DF91C0098475CE000230C220DEB02015C
S2144047002046654CA047002853D19DF91530002B14
S21440471019DB624A02EB03120021D1720121917229
S21440472060490A88013292B20A800A8892B21AB95F
S2144047300A88013292B20A805A4A118889B2574A88
S21440474002EB0312D1808DF81C300223ADF82030E6
S214404750BDF80E30ADF82230049B0993504B1B68D1
S2144047603BB34F4B1B6807AA04219DF9140098479A
S2144047701FE00023042207A92046474CA047C0B9A3
S2144047809DF91C008DF80C009DF91D308DF80D30FC
S2144047903BB9BDF81E30083B9BB2404A02EB0012C4
S2144047A013813F4B1B6823B13D4B1B6803AA052171
S2144047B0984719B0F0BD0023442207A92046364C3E
S2144047C0A0470028F5D1384B1B68002BF1D0364B5C
S2144047D01B68179907A89847EBE7BEF1000F01DD65
S2144047E0AE450DDBADF820E0002307932C4B1B684D
S2144047F0002BDED02A4B1B6807AA39469847D8E7D5
S2144048001FFA8EF2009223443A4607A9274CA04747
S214404810CFE700F0FD03452B19D04C2817D052287F
S214404820C7D10123142207A920461B4CA0470028C5
S214404830BFD11F4B089A1A601B68002BB9D01C4B7F
S2144048401B689DF82C20099907989847B1E7472898
S21440485014BF072508250023082207A920460E4C2A
S214404860A0470028A5D19DF91C00BDF82020BDF822
S2144048701E30ADF80C30094B03EB0013DB889BB2BF
S2144048809A4296D1064B1B68002B92D0044B1B686D
S21440489003AA294698478CE7752C400058CF4020FD
S2144048A008D0402062C3402010D040203D45400004
S2144048B00CD0402008B50A4B1B7803B108BDB02287
S2144048C000210848084B984708490220084B98475B
S2144048D00122034B1A700022064B1A80EEE700BFF7
S2144048E061C3402058CF402021264000F945400073
S2144048F0892D400062C34020024B1860024B19606D
S214404900704700BF08D0402010D04020F0B587B098
S214404910022858D1012959D0022916D10B2607243E
S21440492025462E4B03EB04139B7A002B51D0631C79
S214404930DBB22A4FDCB2B44240D21D4607EB03112D
S214404940897A581C21B10346F4E74FF0FF3437E02C
S214404950224800EB0310164610220021204B9847B1
S2144049601E4B03EB051301229A721E4A138801332D
S2144049709BB2138013889BB21BB9138801339BB23A
S2144049801380184B1A8892B2144B03EB0513DA8047
S21440499064B216F0010F13D006AA02F8044D0F4B6E
S2144049A003EB05152123EB7200230293019300933A
S2144049B00423502102200C4DA84701E04FF0FF345D
S2144049C0204607B0F0BD4FF0FF34F9E70726002435
S2144049D0A6E7024800EB0410BDE700BF58CF4020D2
S2144049E02126400062C340208527400030B589B06C
S2144049F0041E36DB002934D01D4B03EB04139B7A90
S214404A00DBB2002A30D0012B2ED1194B03EB041316
S214404A10DB7A13F0010F22D0154B03EB0413DB7A3D
S214404A208DF81D304B258DF81C40082205A8114BEB
S214404A3098470F4800EB0410C388ADF81E3000239B
S214404A400293019300930C2305AA294602200A4CA0
S214404A50A047002818BF6FF0080009B030BD4425B5
S214404A60E1E76FF00500F8E76FF00500F5E700BFF7
S214404A7058CF40200D2640008527400030B589B0ED
S214404A800C46003118BF0121B2F5AF6F88BF002138
S214404A90002937D0002835DB1D4B03EB00139B7AEB
S214404AA0DBB2012B31D18DF81000ADF81220184B37
S214404AB003EB0013DB88ADF81C300728B4BF502545
S214404AC04425134B03EB0013DB7A13F0010F17D08A
S214404AD00F4B03EB00100589ADB24C2102950192B5
S214404AE0009410230DEB030241F080010220094C94
S214404AF0A04700280CBF00206FF00D0009B030BD65
S214404B004521EBE76FF00500F8E76FF00500F5E7A5
S214404B1058CF402085274000002918BF002A44D09F
S214404B2070B586B00E461546002836DB204A02EBA6
S214404B300012927AD2B2012A32D11D4C010162187B
S214404B4066509580127B002A2DD104EB001201217D
S214404B501173D27A0A40002A0CBF46214D21D3B9A0
S214404B604FF0FF3304938DF81400114B03EB001005
S214404B70C388ADF8163000230293019300930823B0
S214404B8004AA02200B4CA04700280CBF00206FF060
S214404B900D0006B070BD0493E5E76FF00500F8E73A
S214404BA06FF00500F5E70020F3E76FF0050070476B
S214404BB058CF40208527400030B587B0041E2FDBF5
S214404BC01A4B03EB04139B7ADBB2012B2BD18DF8E7
S214404BD01440164B03EB0413DA88ADF81620002277
S214404BE09A72DA80DB7A03F00103934202920192D2
S214404BF000924FF0040305AA0CBF49214E21022023
S214404C000B4DA847051E18BF6FF00805102200215F
S214404C10064800EB0410074B9847284607B030BDBF
S214404C206FF00505F9E76FF00505F6E758CF402029
S214404C30852740002126400070B582B005462B4BA4
S214404C409847C0F30B00B0F5687F03D20024204697
S214404C5002B070BD01A941F21040254B984704466A
S214404C600028F4D1234B019A13402349194301915C
S214404C7041F21040214B984705B3002120481F4D74
S214404C80A847AB211F48A84701211F48A847002135
S214404C901E48A84781211E48A8471E4E1E4D304636
S214404CA0A8470128FBD11349019B194041F48031A4
S214404CB0019141F21040114B9847C8E70021104837
S214404CC00E4DA847B9210F48A84701210E48A847CE
S214404CD000210E48A84781210D48A8470D4E0E4D8D
S214404CE03046A8470128FBD1DDE700BF4D364000DF
S214404CF049394000FF8F88F80010110155394000AF
S214404D00080201000C020100140201001C0201000E
S214404D1004020100180201003D39400010B5104859
S214404D20104B98473E2100200F4B98470F4CA0470A
S214404D300028FCD00E4B98470E4A0F4B9A620F4CF9
S214404D40A0470028FCD002200D4B984700200D4B72
S214404D5098470D4B98470248024B984710BD00BFF6
S214404D6000A3E1114D5A40001555400069554000DA
S214404D7079554000013F182000060E4089554000F6
S214404D8079544000B1544000415940002DE9F0416B
S214404D9080B90C469046002A0FDD8F18084E094D04
S214404DA0306821462B6898470134BC42F8D14046CB
S214404DB0BDE8F0814FF0FF38F9E78046F7E700BFDF
S214404DC01CD0402014D040200138022815D82DE9A8
S214404DD0F0410E4614469AB10D46DFF838800C4F27
S214404DE0D8F8000015F8011B3B68984700280ADBF6
S214404DF0A81B013CF4D1BDE8F0814FF0FF3070476E
S214404E001046BDE8F0814FF0FF30BDE8F08100BFAE
S214404E1018D040201CD04020F8B54FF400425C4BE0
S214404E205A60BFF34F8FBFF36F8F5A4B0022C3F8C1
S214404E3050225A6942F400325A61BFF34F8FBFF393
S214404E406F8FD3F88070C7F34E3607F007000430F4
S214404E50C7F3C907B7FA87FE0EF01F0EBFF34F8F92
S214404E604FF0FF3404FA00FC06FA00F004FA0EF4A1
S214404E7007FA0EFE1D463A46734640EA0301C5F859
S214404E806012013A2344B2F1FF3FF6D1013E60443E
S214404E90B6F1FF3FEFD1BFF34F8F3E4B5A6942F416
S214404EA080325A61BFF34F8FBFF36F8F3A4A3B4908
S214404EB05160A1F580715160BFF34F8FBFF36F8F84
S214404EC0D3F8902222F00102C3F89022D3F894221D
S214404ED022F00102C3F89422BFF34F8FBFF36F8FC7
S214404EE00A202F4CA0470B20A0470C20A04710209C
S214404EF0A0471120A0472B4B4FF480721A61C3F88D
S214404F00A0201A63A3F580634FF400625A61C3F889
S214404F10A0205A66C3F890205A651A62C3F88420C7
S214404F20196F21F400611967596F21F400615967C0
S214404F30C3F8C020C3F8D420C3F8B0204FF4001202
S214404F401A66C3F890205A655A62C3F88020196FD3
S214404F5021F400111967596F21F4001159675A60FE
S214404F60114AD2F8143143F01003C2F814310F4BF3
S214404F7010221A66C3F890205A655A62C3F88020F9
S214404F80196F11431967596F114359675A60F8BD35
S214404F9050180E4000ED00E0000C0E400C08005A81
S214404FA09955400000120E400080084000100E4008
S214404FB00AB90166704741667047C0F884105300CE
S214404FC04FF40042B2FBF3F2013AC2F30D02C0F8CE
S214404FD08C20704701637047416370474264B1F16B
S214404FE0C05F3AD013D8B1F1006F25D0B1F1805FE1
S214404FF00AD1036F13430367436F416F0B4023EAA5
S21440500002034367426070470029FBD17047B1F105
S214405010205F21D009D8B1F1005FF3D1036F13436D
S2144050200367436F13434367ECE7B1F1405F13D028
S214405030B1F1605F10D0E5E710B4016F046FD34361
S21440504021401C4619400167436F416F0B40234087
S214405050436742605DF8044B7047036F016F0B4037
S21440506023EA02030367436F13434367CAE7416477
S21440507012F0010F0DD1016612F00A0F0BD001623B
S21440508012F0020F09D112F0080F08D0C0F88410B1
S21440509005E04166F0E74162F2E7C0F88010416102
S2144050A00160704710B4019C41644CB901664BB135
S2144050B001654AB94163016101605DF8044B704780
S2144050C04166F4E74165F4E70163F4E770B582B002
S2144050D0054616461C46B1F1005F14D00AD9B1F118
S2144050E0405F24D0B1F1605F21D0B1F1205F17D08E
S2144050F000201AE0B1F1805F05D0B1F1C05F02D068
S214405100B1F1006FF4D132462846114B984714F05F
S214405110010F02D12E66012007E06E66012004E0F2
S2144051201A4631460B4B9847012002B070BD04F03A
S21440513001030093C4F38003B1F1605F14BF002203
S214405140012231462846044CA0470120EDE700BF27
S214405150DD4F40006F504000A550400012F0100F49
S21440516012D0C0F8B01012F0200F07D0C0F8D410FC
S21440517012F0400F05D0C0F8C0107047C0F8D010ED
S214405180F6E7C0F8C4107047C0F8B4107047016422
S214405190704741647047C06C7047806C7047000031
S2144051A070B582B00D46464C04EB5014640201F0D4
S2144051B0F043B3F1005F59D00AD8B3F1805F2FD0E7
S2144051C0B3F1C05F3FD0B3F1006F16D0002012E0BD
S2144051D0B3F1405F5DD0B3F1605F5AD0B3F1205F6A
S2144051E0F4D100F01F0101262A4606FA01F12046B6
S2144051F0344B9847304602B070BD00F01F00012681
S214405200864032464FF0006120462F4B984715F0B7
S214405210010F02D126660120EDE766660120EAE727
S21440522000F01F000126864032464FF0805120464F
S214405230254B984715F0010F02D126660120DAE784
S21440524066660120D7E700F01F00012686403246FA
S2144052504FF0C05120461C4B984715F0010F02D125
S21440526026660120C7E766660120C4E700F01F00F7
S2144052700126864032464FF000512046124B984752
S21440528015F0010F02D126660120B4E766660120BC
S214405290B1E705F0605200F01F01012605EA06035B
S2144052A00093C5F38003B2F1605F14BF0022012271
S2144052B006FA01F12046054CA04730469BE700BF62
S2144052C0070720006F504000DD4F4000A5504000CB
S2144052D02DE9F041044688460E4B98470546204641
S2144052E00D4B9847054013D00C4C04F1600603E084
S2144052F0B4420DD010345DB120684045F8D16168A5
S2144053002942F5D0E3689847636825EA0305EFE746
S214405310BDE8F081975140009B51400064C3402057
S214405320F8B5184C2668062E2AD84FF0000C64466E
S214405330154F04E00134E4B2A446A64209D3A6467B
S21440534025017D598D42F5D107EB04156D689542D0
S214405350F0D10D4D4FEA0E1E05EB0E0445F80E102B
S2144053606260A3600699E1600136664505D0114645
S2144053701A46064B98470020F8BD02490E60F6E7ED
S2144053800120F8BDD4C3402064C340205D51400096
S21440539008B50A210148024B984708BD000E0E404A
S2144053A0D152400008B50B210148024B984708BD32
S2144053B000100E40D152400008B50C210148024B67
S2144053C0984708BD00120E40D152400008B5102143
S2144053D00148024B984708BD00140E40D152400089
S2144053E008B511210148024B984708BD00160E40EB
S2144053F0D1524000F8B506460D461446174B98471E
S21440540007464FF0FF313046154B98473046154B10
S21440541098475FFA85FE0EF01F03012202FA03F357
S2144054206809114901EB8002C2F88030C2F8803129
S214405430002D0ADB6401E4B20C4A545541F8203092
S214405440394630460A4B9847F8BD0EF00F0E6401B9
S214405450E4B2084A02F80E40F0E700BF9B51400015
S214405460935140009751400000E100E000E400E026
S2144054708F51400014ED00E0032811D0042812D0CC
S21440548002280CBF4FF480710021084A136B23F4A6
S21440549040730B431363936E13F0080FFBD07047B3
S2144054A04FF44071F1E74FF40071EEE700060E400E
S2144054B0174A136B23F0700318431063936E13F070
S2144054C0080F0AD14FF4805311498A6E12F0080F24
S2144054D003D1013BF9D1012070470D4A136B23F0ED
S2144054E0030343F002031363936E13F0080F0AD1CD
S2144054F04FF4805306498A6E12F0080F05D1013BDF
S214405500F9D101207047002070470020704700BF47
S21440551000060E40A0B90E48036A090289B20D4A39
S2144055201A400D4B1343194301620246936E13F023
S214405530010FFBD0064A116A084B0B4313627047B3
S21440554003490B6A064A1A40064B13430B627047E0
S21440555000060E40FCFFC8FF010037000000370180
S214405560FCFFC8FE02003701024B986E00F4803004
S214405570704700BF00060E404FF00052014B9A6243
S214405580704700BF00060E40024B986E00F00200C7
S214405590704700BF00060E403F281ED81F280CD874
S2144055A0114B9A6901238340934318D0012303FA91
S2144055B000F00D4B18610020704720380A4BD3F896
S2144055C008210123834093430BD0012303FA00F0C4
S2144055D0054BC3F8000100207047012070470020AB
S2144055E070470020704700BF00060E4008B5074BC6
S2144055F0984203D0064B984204D008BD1520054B70
S214405600984708BD2A20034B9847F6E7008000409D
S2144056100080054099554000436823F4702343605A
S2144056204368090401F4702119434160704710B47F
S21440563043F69923046914F0010F03D1013BF9D1D5
S214405640012009E08368406810F0020F02D0C3F3DF
S214405650034010700B8000205DF8044B704730B458
S21440566043F69924056915F0020F03D1013CF9D1A0
S21440567001200CE0446814F0020F06D0120402F435
S214405680702211430BB141F08071C160002030BCE4
S214405690704732B900EB8100036B23F001030363CC
S2144056A0704700EB8100036B43F0010303637047D0
S2144056B032B900EB8100036B23F0020303637047AB
S2144056C000EB8100036B43F002030363704700EB7B
S2144056D081010B6B23F0F0030B630B6B1A430A63D9
S2144056E07047431E1944B1FBF0F0431EFE2B94BF97
S2144056F000B24FF0FF3070477AB110B4144600EB5A
S21440570081010B6B23F47F430B630A6B42EA04224E
S2144057100A6300205DF8044B70474FF0FF30704737
S21440572010B400EB8101086B80B208630C6B44EA4E
S214405730036343EA02430B635DF8044B70474369D7
S21440574013F0020F02D0C16100207047012070475D
S214405750436913F0010F03D083690B700020704734
S2144057600120704710B40B01934214D9C9004B086E
S21440577003EBC202B2FBF1F2D3085C1E4FF6FE7199
S2144057808C4201D9012017E0416841F40021416074
S2144057900CE0012010E0590801EBC202B2FBF3F224
S2144057A0D3085C1E4FF6FE718C42F2D8120402F407
S2144057B0E0221A43026200205DF8044B7047000066
S2144057C0084BC0F8E430002343604362836288237A
S2144057D00360242303604FF4807303604FF4002378
S2144057E0036070470041535570B505460C46164653
S2144057F00F4B984700220F4B1A60A4B132462168DF
S21440580028460D4B9847024678B96368A1680B4313
S21440581021690B43E1680B4306490B6069680B43FB
S2144058206B60104670BD0122FBE70122F9E700BF1E
S214405830C1574000D8C3402065574000402303600E
S2144058407047102303607047436913F0020F04D07B
S214405850C1F30801C16100207047012070474369C9
S21440586013F0010F05D08369C3F308030B600020D3
S214405870704701207047FEE700B583B0254B264AA7
S2144058809A4210D0254B234A9A420CD2013B9B1A8F
S21440589023F00303043313441F4951F8040B42F822
S2144058A0040B9A42F9D11E4B1E4A9A420AD2013B39
S2144058B09B1A23F0030304331344002142F8041BCD
